:040000000C94540008
:100004000C9400000C9400000C9400000C9400006C
:100014000C9400000C9400000C9400000C9400005C
:100024000C9400000C9400000C9400000C9400004C
:100034000C9400000C9400000C9400000C9400003C
:100044000C9400000C9483000C9400000C940000A9
:100054000C9400000C9400000C9400000C9400001C
:100064000C9400001027E80364000A00010000104B
:10007400000110000100000000000000000000006A
:100084000000000000000000000003002800402CD5
:1000940025642C25642C25640D0A0000040003004B
:1000A4007A000000F894EE27EFBBF1E0F5BFE5BF5E
:1000B4008DE0A2E0BB27ED938A95E9F780E098E014
:1000C400A0E0B1E0ED930197E9F7E0EAF0E0859173
:1000D4009591009761F0A591B59105901590BF0198
:1000E400F00105900D920197E1F7FB01F0CFE0E0FC
:1000F400EEBBEFEFEDBFE8E0EEBFC0E0D3E00C9461
:10010400A700EA93FA93EFB7EA931A930A9310912C
:10011400C0000091C600E12FEC7181F4E42D4394FA
:10012400F0E0E050FD4F0083E8E0E41509F44424D6
:100134006394E8E0E61511F46624F09A09911991A4
:10014400E991EFBFF991E9911895649784E1A0E0F2
:10015400B0E0EEE7F0E00E94130400E010E02EE1CE
:1001640030E043E050E0E0E8E0936100E0E0E09359
:100174006100EFE3E4B9E0E0E5B9E7B9E8B9EAB969
:10018400EBB9E4BDE5BDE6BDE7BDE8BDE0938000A5
:10019400E0938100E0938500E0938400E09387007E
:1001A400E0938600E0938900E0938800E0938B005D
:1001B400E0938A00E093B600E093B000E093B100CE
:1001C400E093B200E093B300E093B400E0936E00D8
:1001D400E0936F00E0937000E0936900EDBBE0935F
:1001E4006800E093C000E8E9E093C100E6E0E09332
:1001F400C200E0E0E093C500E7E6E093C400E0E875
:10020400E0BFE0E0E0937B00E0937F00E0937A00BE
:10021400ECBDE093BC007894E889F989AA89BB898C
:10022400EA0FFB1FEE87FF87FA01E20FF31FEC874B
:10023400FD87EA87FB87EA89FB89AA85BB85EA0FE4
:10024400FB1FE887F987E889F989A885B985EA0F4A
:10025400FB1FEE83FF83A8EEB3E00E94C0032017C8
:10026400310744F0E1E0F0E0EC83FD83F9010E9402
:1002740076032AC0201731072CF4EA85FB85E017A2
:10028400F1070CF409C0E2E0F0E0EC83FD83EA85B9
:10029400FB850E94760318C0EA85FB85E017F10709
:1002A4002CF4E885F985E017F1070CF407C0E3E0C6
:1002B400F0E00E947D03E885F98506C0E4E0F0E003
:1002C4000E947D03EE81FF81E01BF10BE883F9833B
:1002D400AC81BD81E1E0F0E00E94D703E03011F48D
:1002E400289801C0289AAC81BD81E2E0F0E00E9428
:1002F400D703E03011F4299801C0299AAC81BD815B
:10030400E3E0F0E00E94D703E03011F42A9801C042
:100314002A9AAC81BD81E4E0F0E00E94D703E0308A
:1003240011F42B9801C02B9AA0E02A99A1E0E0E0F7
:100334002B99E1E0EA2B11F42C9801C02C9AA0E04F
:100344002899A1E0E0E02999E1E0EA2B11F42D9845
:1003540001C02D9A0F5F1F4FEE81FF81E017F10757
:1003640014F400E010E0E2E9F0E0FA93EA93EE819D
:10037400FF810E948603E885F9850E948603EA8549
:10038400FB850E9486038CE071D12E96F09B21C0E0
:10039400A0910003A83561F4A0910103A13421F4D4
:1003A4000E948B039D0104C00E948B03AA8BBB8B0C
:1003B400A0910003A63561F4A0910103A13421F4B6
:1003C4000E948B03AD0104C00E948B03A88BB98BE0
:1003D400F09822CFFFCFAA93E091C000E072E1F33E
:1003E400E881E093C60021960895BA93AA93AA815E
:1003F400F2DFA881B981ED91FD913196FE93EE93E0
:1004040023960895BA93AA9326970E94050410E0B0
:10041400AC85BD85E0E0F0E0ED93FC93EA89FB89CF
:100424003196EA8BFB8B3197E4912E2FE03009F45F
:1004340015C1E12FE03039F4253211F411E002C086
:100444000E949B030AC1E130A9F4253219F40E94E9
:100454009B0302C112E040E000E02D3211F401E000
:10046400FCC02B3211F44BE2F8C0203211F440E20C
:10047400F4C002C0E23039F450E013E0203311F448
:100484000068EBC003C0E33009F0E7C0203310F08C
:100494002A3308F007C0AAE05A9F502DE22FE053F8
:1004A4005E0FDBC0E22FE33649F40E94A203E88921
:1004B400F989A481AA930E94A803CEC0E33741F42A
:1004C4000E94A2030E94AE030E945D031E2F0AC075
:1004D400E03761F40E94A2030E94AE030E94690304
:1004E4001E2F086002600F7730E034C0E43611F04C
:1004F400E93611F4046002C0E53731F4E8E6F0E0CF
:10050400EE83FF8315E00CC0E83511F4086003C0E6
:10051400E83709F0A1C0E2E7F0E0EE83FF8314E0DE
:1005240002FF14C00E94A2030E94B803AB85AA2351
:100534003AF4EA85FB850E94CE03EA87FB874DE205
:10054400403011F01F5F01C00B7F04C00E94A20362
:100554000E94B80300FD11C0151778F407FF08C006
:1005640002FF04C00B7F242F115001C020E301C0FF
:1005740020E20E949B035150EFCF312F01FF17C09F
:100584003030A1F003FF06C0EE81FF812591EE8398
:10059400FF8305C0AE81BF812D91AE83BF830E94CE
:1005A4009B03503009F051503150EACF4BC020E347
:1005B400EE81FF810E94FC03E887F987EE81FF81C9
:1005C4003296EE83FF83E885F985AA85BB85AE174D
:1005D400BF0750F02F5FA885B985EA85FB85EA1B24
:1005E400FB0BEA87FB87EFCF2A3328F003FF02C017
:1005F400295F01C0295D04FD1AC0213320F4A885B8
:10060400B985119709F409C0531710F000FF01C010
:1006140013C020E207FF0BC020E3006102FF07C004
:100624000B7F4A930E94A803503009F051500E9456
:100634009B03503009F051503150A885B985129769
:1006440008F0B5CF00FF08C0503031F05150E0E25F
:10065400EA930E94A803F8CF10E0E0CEAC85BD85F4
:100664000E94F8030E940C0464960895FF92F82EE9
:1006740026971A930A93DE0114960E94CA038D01E9
:10068400E0E0EC83ED83EE83EF83DE0118960E94B5
:10069400CA030E94F803FA93EA931A930A93E7EFC2
:1006A400F1E0FA93EA93DE011896ACDE1981088131
:1006B4002896FF900895BA93AA93A991B991EE2729
:1006C400FF276D91662311F03196FBCF0895BA93FD
:1006D400AA93AA27BB27E991F9910590002011F06C
:1006E4001196FBCFFD010895E01BF10BEA83FB8318
:1006F400EA85FB850895EC83FD83EE81FF81E01B91
:10070400F10BEA83FB8308950E94D2030E94000444
:100714000895E0910603F0E0F097AAE0B0E00E94AB
:10072400E503DF01E0910703F0E0AE0FBF1FD097B0
:1007340008952A93AD85BE85EF85F88909950895B6
:10074400E889F9893497E88BF98B0895AD85BE85DE
:10075400EF85F88909950895A889B98914960E94A6
:10076400F803EE83FF83AE81BF810895A889B98918
:1007740014960E94F803EA87FB870895109639F0CF
:1007840080EA9FE00197F1F7A8951197C9F70895BA
:100794000024AF0DB01D0895F195E195F040089542
:1007A4006F2F660F660B762F0895EA17FB07E1E0BB
:1007B40009F0EE270895FA9FF02DEB9FF00DEA9FC4
:1007C400E02DF10D089504D0F6DF0EF4E5DF089571
:1007D400E894F7FF02C0E0DF6894B7FF06C0A09575
:1007E400B095119600F8039400FA0895ED91FC91E8
:1007F400119708950590F491E02D08957A936A93E2
:10080400FA93EA9308955A934A933A932A931A933C
:100814000A9308955D814C813B812A811981088165
:100824000895AC0FBD1F05900D928A95E1F70895C8
:00000001FF
